{
  "_format": "hh-sol-artifact-1",
  "contractName": "TalentLayerIdUtils",
  "sourceName": "contracts/TalentLayerIdUtils.sol",
  "abi": [
    {
      "inputs": [
        {
          "internalType": "address",
          "name": "_talentLayerIDAddress",
          "type": "address"
        }
      ],
      "stateMutability": "nonpayable",
      "type": "constructor"
    },
    {
      "inputs": [
        {
          "internalType": "address",
          "name": "_to",
          "type": "address"
        },
        {
          "internalType": "address",
          "name": "_delegateAddress",
          "type": "address"
        },
        {
          "internalType": "uint256",
          "name": "_platformId",
          "type": "uint256"
        },
        {
          "internalType": "string",
          "name": "_handle",
          "type": "string"
        }
      ],
      "name": "mintDelegateAndTransfer",
      "outputs": [],
      "stateMutability": "payable",
      "type": "function"
    },
    {
      "inputs": [
        {
          "internalType": "address",
          "name": "operator",
          "type": "address"
        },
        {
          "internalType": "address",
          "name": "from",
          "type": "address"
        },
        {
          "internalType": "uint256",
          "name": "tokenId",
          "type": "uint256"
        },
        {
          "internalType": "bytes",
          "name": "data",
          "type": "bytes"
        }
      ],
      "name": "onERC721Received",
      "outputs": [
        {
          "internalType": "bytes4",
          "name": "",
          "type": "bytes4"
        }
      ],
      "stateMutability": "pure",
      "type": "function"
    },
    {
      "inputs": [],
      "name": "talentLayerIdContract",
      "outputs": [
        {
          "internalType": "contract TalentLayerID",
          "name": "",
          "type": "address"
        }
      ],
      "stateMutability": "view",
      "type": "function"
    }
  ],
  "bytecode": "0x608060405234801561001057600080fd5b5060405161041238038061041283398101604081905261002f91610054565b600080546001600160a01b0319166001600160a01b0392909216919091179055610084565b60006020828403121561006657600080fd5b81516001600160a01b038116811461007d57600080fd5b9392505050565b61037f806100936000396000f3fe6080604052600436106100345760003560e01c8063150b7a021461003957806391e8bcb714610083578063cf254274146100bb575b600080fd5b34801561004557600080fd5b5061006561005436600461028b565b630a85bd0160e11b95945050505050565b6040516001600160e01b031990911681526020015b60405180910390f35b34801561008f57600080fd5b506000546100a3906001600160a01b031681565b6040516001600160a01b03909116815260200161007a565b6100ce6100c936600461028b565b6100d0565b005b60008054604051630ee12ff960e31b81526001600160a01b03909116906377097fc8903490610107908890889088906004016102fa565b60206040518083038185885af1158015610125573d6000803e3d6000fd5b50505050506040513d601f19601f8201168201806040525081019061014a9190610330565b600054604051631cf6239b60e01b8152600481018390526001600160a01b038881166024830152929350911690631cf6239b90604401600060405180830381600087803b15801561019a57600080fd5b505af11580156101ae573d6000803e3d6000fd5b5050600054604051632142170760e11b81523060048201526001600160a01b038a811660248301526044820186905290911692506342842e0e9150606401600060405180830381600087803b15801561020657600080fd5b505af115801561021a573d6000803e3d6000fd5b50505050505050505050565b80356001600160a01b038116811461023d57600080fd5b919050565b60008083601f84011261025457600080fd5b50813567ffffffffffffffff81111561026c57600080fd5b60208301915083602082850101111561028457600080fd5b9250929050565b6000806000806000608086880312156102a357600080fd5b6102ac86610226565b94506102ba60208701610226565b935060408601359250606086013567ffffffffffffffff8111156102dd57600080fd5b6102e988828901610242565b969995985093965092949392505050565b83815260406020820152816040820152818360608301376000818301606090810191909152601f909201601f1916010192915050565b60006020828403121561034257600080fd5b505191905056fea26469706673582212207b47ed6d7f547a3609438d14990ac3c358cf36038fae5c43fa5c6d0825ef9e5164736f6c63430008110033",
  "linkReferences": {},
  "deployedLinkReferences": {}
}