{
  "_format": "hh-sol-artifact-1",
  "contractName": "TalentLayerPlatformID",
  "sourceName": "contracts/TalentLayerPlatformID.sol",
  "abi": [
    {
      "inputs": [],
      "stateMutability": "nonpayable",
      "type": "constructor"
    },
    {
      "inputs": [],
      "name": "HandleContainsInvalidCharacters",
      "type": "error"
    },
    {
      "inputs": [],
      "name": "HandleFirstCharInvalid",
      "type": "error"
    },
    {
      "inputs": [],
      "name": "HandleLengthInvalid",
      "type": "error"
    },
    {
      "anonymous": false,
      "inputs": [
        {
          "indexed": false,
          "internalType": "address",
          "name": "previousAdmin",
          "type": "address"
        },
        {
          "indexed": false,
          "internalType": "address",
          "name": "newAdmin",
          "type": "address"
        }
      ],
      "name": "AdminChanged",
      "type": "event"
    },
    {
      "anonymous": false,
      "inputs": [
        {
          "indexed": true,
          "internalType": "address",
          "name": "owner",
          "type": "address"
        },
        {
          "indexed": true,
          "internalType": "address",
          "name": "approved",
          "type": "address"
        },
        {
          "indexed": true,
          "internalType": "uint256",
          "name": "tokenId",
          "type": "uint256"
        }
      ],
      "name": "Approval",
      "type": "event"
    },
    {
      "anonymous": false,
      "inputs": [
        {
          "indexed": true,
          "internalType": "address",
          "name": "owner",
          "type": "address"
        },
        {
          "indexed": true,
          "internalType": "address",
          "name": "operator",
          "type": "address"
        },
        {
          "indexed": false,
          "internalType": "bool",
          "name": "approved",
          "type": "bool"
        }
      ],
      "name": "ApprovalForAll",
      "type": "event"
    },
    {
      "anonymous": false,
      "inputs": [
        {
          "indexed": false,
          "internalType": "uint256",
          "name": "platformId",
          "type": "uint256"
        },
        {
          "indexed": false,
          "internalType": "uint256",
          "name": "arbitrationFeeTimeout",
          "type": "uint256"
        }
      ],
      "name": "ArbitrationFeeTimeoutUpdated",
      "type": "event"
    },
    {
      "anonymous": false,
      "inputs": [
        {
          "indexed": false,
          "internalType": "address",
          "name": "arbitrator",
          "type": "address"
        },
        {
          "indexed": false,
          "internalType": "bool",
          "name": "isInternal",
          "type": "bool"
        }
      ],
      "name": "ArbitratorAdded",
      "type": "event"
    },
    {
      "anonymous": false,
      "inputs": [
        {
          "indexed": false,
          "internalType": "address",
          "name": "arbitrator",
          "type": "address"
        }
      ],
      "name": "ArbitratorRemoved",
      "type": "event"
    },
    {
      "anonymous": false,
      "inputs": [
        {
          "indexed": false,
          "internalType": "uint256",
          "name": "platformId",
          "type": "uint256"
        },
        {
          "indexed": false,
          "internalType": "contract Arbitrator",
          "name": "arbitrator",
          "type": "address"
        },
        {
          "indexed": false,
          "internalType": "bytes",
          "name": "extraData",
          "type": "bytes"
        }
      ],
      "name": "ArbitratorUpdated",
      "type": "event"
    },
    {
      "anonymous": false,
      "inputs": [
        {
          "indexed": true,
          "internalType": "address",
          "name": "beacon",
          "type": "address"
        }
      ],
      "name": "BeaconUpgraded",
      "type": "event"
    },
    {
      "anonymous": false,
      "inputs": [
        {
          "indexed": true,
          "internalType": "uint256",
          "name": "platformId",
          "type": "uint256"
        },
        {
          "indexed": false,
          "internalType": "string",
          "name": "newCid",
          "type": "string"
        }
      ],
      "name": "CidUpdated",
      "type": "event"
    },
    {
      "anonymous": false,
      "inputs": [
        {
          "indexed": false,
          "internalType": "uint8",
          "name": "version",
          "type": "uint8"
        }
      ],
      "name": "Initialized",
      "type": "event"
    },
    {
      "anonymous": false,
      "inputs": [
        {
          "indexed": false,
          "internalType": "uint256",
          "name": "minArbitrationFeeTimeout",
          "type": "uint256"
        }
      ],
      "name": "MinArbitrationFeeTimeoutUpdated",
      "type": "event"
    },
    {
      "anonymous": false,
      "inputs": [
        {
          "indexed": true,
          "internalType": "address",
          "name": "platformOwnerAddress",
          "type": "address"
        },
        {
          "indexed": false,
          "internalType": "uint256",
          "name": "platformId",
          "type": "uint256"
        },
        {
          "indexed": false,
          "internalType": "string",
          "name": "platformName",
          "type": "string"
        },
        {
          "indexed": false,
          "internalType": "uint256",
          "name": "fee",
          "type": "uint256"
        },
        {
          "indexed": false,
          "internalType": "uint256",
          "name": "arbitrationFeeTimeout",
          "type": "uint256"
        }
      ],
      "name": "Mint",
      "type": "event"
    },
    {
      "anonymous": false,
      "inputs": [
        {
          "indexed": false,
          "internalType": "uint256",
          "name": "mintFee",
          "type": "uint256"
        }
      ],
      "name": "MintFeeUpdated",
      "type": "event"
    },
    {
      "anonymous": false,
      "inputs": [
        {
          "indexed": false,
          "internalType": "enum TalentLayerPlatformID.MintStatus",
          "name": "mintStatus",
          "type": "uint8"
        }
      ],
      "name": "MintStatusUpdated",
      "type": "event"
    },
    {
      "anonymous": false,
      "inputs": [
        {
          "indexed": false,
          "internalType": "uint256",
          "name": "platformId",
          "type": "uint256"
        },
        {
          "indexed": false,
          "internalType": "uint16",
          "name": "originServiceFeeRate",
          "type": "uint16"
        }
      ],
      "name": "OriginServiceFeeRateUpdated",
      "type": "event"
    },
    {
      "anonymous": false,
      "inputs": [
        {
          "indexed": false,
          "internalType": "uint256",
          "name": "platformId",
          "type": "uint256"
        },
        {
          "indexed": false,
          "internalType": "uint16",
          "name": "originValidatedProposalFeeRate",
          "type": "uint16"
        }
      ],
      "name": "OriginValidatedProposalFeeRateUpdated",
      "type": "event"
    },
    {
      "anonymous": false,
      "inputs": [
        {
          "indexed": false,
          "internalType": "uint256",
          "name": "platformId",
          "type": "uint256"
        },
        {
          "indexed": false,
          "internalType": "uint256",
          "name": "proposalPostingFee",
          "type": "uint256"
        }
      ],
      "name": "ProposalPostingFeeUpdated",
      "type": "event"
    },
    {
      "anonymous": false,
      "inputs": [
        {
          "indexed": true,
          "internalType": "bytes32",
          "name": "role",
          "type": "bytes32"
        },
        {
          "indexed": true,
          "internalType": "bytes32",
          "name": "previousAdminRole",
          "type": "bytes32"
        },
        {
          "indexed": true,
          "internalType": "bytes32",
          "name": "newAdminRole",
          "type": "bytes32"
        }
      ],
      "name": "RoleAdminChanged",
      "type": "event"
    },
    {
      "anonymous": false,
      "inputs": [
        {
          "indexed": true,
          "internalType": "bytes32",
          "name": "role",
          "type": "bytes32"
        },
        {
          "indexed": true,
          "internalType": "address",
          "name": "account",
          "type": "address"
        },
        {
          "indexed": true,
          "internalType": "address",
          "name": "sender",
          "type": "address"
        }
      ],
      "name": "RoleGranted",
      "type": "event"
    },
    {
      "anonymous": false,
      "inputs": [
        {
          "indexed": true,
          "internalType": "bytes32",
          "name": "role",
          "type": "bytes32"
        },
        {
          "indexed": true,
          "internalType": "address",
          "name": "account",
          "type": "address"
        },
        {
          "indexed": true,
          "internalType": "address",
          "name": "sender",
          "type": "address"
        }
      ],
      "name": "RoleRevoked",
      "type": "event"
    },
    {
      "anonymous": false,
      "inputs": [
        {
          "indexed": false,
          "internalType": "uint256",
          "name": "platformId",
          "type": "uint256"
        },
        {
          "indexed": false,
          "internalType": "uint256",
          "name": "servicePostingFee",
          "type": "uint256"
        }
      ],
      "name": "ServicePostingFeeUpdated",
      "type": "event"
    },
    {
      "anonymous": false,
      "inputs": [
        {
          "indexed": false,
          "internalType": "uint256",
          "name": "platformId",
          "type": "uint256"
        },
        {
          "indexed": false,
          "internalType": "address",
          "name": "signer",
          "type": "address"
        }
      ],
      "name": "SignerUpdated",
      "type": "event"
    },
    {
      "anonymous": false,
      "inputs": [
        {
          "indexed": true,
          "internalType": "address",
          "name": "from",
          "type": "address"
        },
        {
          "indexed": true,
          "internalType": "address",
          "name": "to",
          "type": "address"
        },
        {
          "indexed": true,
          "internalType": "uint256",
          "name": "tokenId",
          "type": "uint256"
        }
      ],
      "name": "Transfer",
      "type": "event"
    },
    {
      "anonymous": false,
      "inputs": [
        {
          "indexed": true,
          "internalType": "address",
          "name": "implementation",
          "type": "address"
        }
      ],
      "name": "Upgraded",
      "type": "event"
    },
    {
      "anonymous": false,
      "inputs": [
        {
          "indexed": true,
          "internalType": "address",
          "name": "user",
          "type": "address"
        }
      ],
      "name": "UserWhitelisted",
      "type": "event"
    },
    {
      "inputs": [],
      "name": "DEFAULT_ADMIN_ROLE",
      "outputs": [
        {
          "internalType": "bytes32",
          "name": "",
          "type": "bytes32"
        }
      ],
      "stateMutability": "view",
      "type": "function"
    },
    {
      "inputs": [],
      "name": "MINT_ROLE",
      "outputs": [
        {
          "internalType": "bytes32",
          "name": "",
          "type": "bytes32"
        }
      ],
      "stateMutability": "view",
      "type": "function"
    },
    {
      "inputs": [
        {
          "internalType": "address",
          "name": "_arbitrator",
          "type": "address"
        },
        {
          "internalType": "bool",
          "name": "_isInternal",
          "type": "bool"
        }
      ],
      "name": "addArbitrator",
      "outputs": [],
      "stateMutability": "nonpayable",
      "type": "function"
    },
    {
      "inputs": [
        {
          "internalType": "address",
          "name": "to",
          "type": "address"
        },
        {
          "internalType": "uint256",
          "name": "tokenId",
          "type": "uint256"
        }
      ],
      "name": "approve",
      "outputs": [],
      "stateMutability": "nonpayable",
      "type": "function"
    },
    {
      "inputs": [
        {
          "internalType": "address",
          "name": "owner",
          "type": "address"
        }
      ],
      "name": "balanceOf",
      "outputs": [
        {
          "internalType": "uint256",
          "name": "",
          "type": "uint256"
        }
      ],
      "stateMutability": "view",
      "type": "function"
    },
    {
      "inputs": [
        {
          "internalType": "uint256",
          "name": "tokenId",
          "type": "uint256"
        }
      ],
      "name": "getApproved",
      "outputs": [
        {
          "internalType": "address",
          "name": "",
          "type": "address"
        }
      ],
      "stateMutability": "view",
      "type": "function"
    },
    {
      "inputs": [
        {
          "internalType": "uint256",
          "name": "_platformId",
          "type": "uint256"
        }
      ],
      "name": "getOriginServiceFeeRate",
      "outputs": [
        {
          "internalType": "uint16",
          "name": "",
          "type": "uint16"
        }
      ],
      "stateMutability": "view",
      "type": "function"
    },
    {
      "inputs": [
        {
          "internalType": "uint256",
          "name": "_platformId",
          "type": "uint256"
        }
      ],
      "name": "getOriginValidatedProposalFeeRate",
      "outputs": [
        {
          "internalType": "uint16",
          "name": "",
          "type": "uint16"
        }
      ],
      "stateMutability": "view",
      "type": "function"
    },
    {
      "inputs": [
        {
          "internalType": "uint256",
          "name": "_platformId",
          "type": "uint256"
        }
      ],
      "name": "getPlatform",
      "outputs": [
        {
          "components": [
            {
              "internalType": "uint256",
              "name": "id",
              "type": "uint256"
            },
            {
              "internalType": "string",
              "name": "name",
              "type": "string"
            },
            {
              "internalType": "string",
              "name": "dataUri",
              "type": "string"
            },
            {
              "internalType": "uint16",
              "name": "originServiceFeeRate",
              "type": "uint16"
            },
            {
              "internalType": "uint16",
              "name": "originValidatedProposalFeeRate",
              "type": "uint16"
            },
            {
              "internalType": "uint256",
              "name": "servicePostingFee",
              "type": "uint256"
            },
            {
              "internalType": "uint256",
              "name": "proposalPostingFee",
              "type": "uint256"
            },
            {
              "internalType": "contract Arbitrator",
              "name": "arbitrator",
              "type": "address"
            },
            {
              "internalType": "bytes",
              "name": "arbitratorExtraData",
              "type": "bytes"
            },
            {
              "internalType": "uint256",
              "name": "arbitrationFeeTimeout",
              "type": "uint256"
            },
            {
              "internalType": "address",
              "name": "signer",
              "type": "address"
            }
          ],
          "internalType": "struct TalentLayerPlatformID.Platform",
          "name": "",
          "type": "tuple"
        }
      ],
      "stateMutability": "view",
      "type": "function"
    },
    {
      "inputs": [
        {
          "internalType": "uint256",
          "name": "_platformId",
          "type": "uint256"
        }
      ],
      "name": "getProposalPostingFee",
      "outputs": [
        {
          "internalType": "uint256",
          "name": "",
          "type": "uint256"
        }
      ],
      "stateMutability": "view",
      "type": "function"
    },
    {
      "inputs": [
        {
          "internalType": "bytes32",
          "name": "role",
          "type": "bytes32"
        }
      ],
      "name": "getRoleAdmin",
      "outputs": [
        {
          "internalType": "bytes32",
          "name": "",
          "type": "bytes32"
        }
      ],
      "stateMutability": "view",
      "type": "function"
    },
    {
      "inputs": [
        {
          "internalType": "uint256",
          "name": "_platformId",
          "type": "uint256"
        }
      ],
      "name": "getServicePostingFee",
      "outputs": [
        {
          "internalType": "uint256",
          "name": "",
          "type": "uint256"
        }
      ],
      "stateMutability": "view",
      "type": "function"
    },
    {
      "inputs": [
        {
          "internalType": "uint256",
          "name": "_platformId",
          "type": "uint256"
        }
      ],
      "name": "getSigner",
      "outputs": [
        {
          "internalType": "address",
          "name": "",
          "type": "address"
        }
      ],
      "stateMutability": "view",
      "type": "function"
    },
    {
      "inputs": [
        {
          "internalType": "bytes32",
          "name": "role",
          "type": "bytes32"
        },
        {
          "internalType": "address",
          "name": "account",
          "type": "address"
        }
      ],
      "name": "grantRole",
      "outputs": [],
      "stateMutability": "nonpayable",
      "type": "function"
    },
    {
      "inputs": [
        {
          "internalType": "bytes32",
          "name": "role",
          "type": "bytes32"
        },
        {
          "internalType": "address",
          "name": "account",
          "type": "address"
        }
      ],
      "name": "hasRole",
      "outputs": [
        {
          "internalType": "bool",
          "name": "",
          "type": "bool"
        }
      ],
      "stateMutability": "view",
      "type": "function"
    },
    {
      "inputs": [
        {
          "internalType": "address",
          "name": "",
          "type": "address"
        }
      ],
      "name": "ids",
      "outputs": [
        {
          "internalType": "uint256",
          "name": "",
          "type": "uint256"
        }
      ],
      "stateMutability": "view",
      "type": "function"
    },
    {
      "inputs": [],
      "name": "initialize",
      "outputs": [],
      "stateMutability": "nonpayable",
      "type": "function"
    },
    {
      "inputs": [
        {
          "internalType": "address",
          "name": "",
          "type": "address"
        }
      ],
      "name": "internalArbitrators",
      "outputs": [
        {
          "internalType": "bool",
          "name": "",
          "type": "bool"
        }
      ],
      "stateMutability": "view",
      "type": "function"
    },
    {
      "inputs": [
        {
          "internalType": "address",
          "name": "owner",
          "type": "address"
        },
        {
          "internalType": "address",
          "name": "operator",
          "type": "address"
        }
      ],
      "name": "isApprovedForAll",
      "outputs": [
        {
          "internalType": "bool",
          "name": "",
          "type": "bool"
        }
      ],
      "stateMutability": "view",
      "type": "function"
    },
    {
      "inputs": [
        {
          "internalType": "uint256",
          "name": "_platformId",
          "type": "uint256"
        }
      ],
      "name": "isValid",
      "outputs": [],
      "stateMutability": "view",
      "type": "function"
    },
    {
      "inputs": [],
      "name": "minArbitrationFeeTimeout",
      "outputs": [
        {
          "internalType": "uint256",
          "name": "",
          "type": "uint256"
        }
      ],
      "stateMutability": "view",
      "type": "function"
    },
    {
      "inputs": [
        {
          "internalType": "string",
          "name": "_platformName",
          "type": "string"
        }
      ],
      "name": "mint",
      "outputs": [
        {
          "internalType": "uint256",
          "name": "",
          "type": "uint256"
        }
      ],
      "stateMutability": "payable",
      "type": "function"
    },
    {
      "inputs": [],
      "name": "mintFee",
      "outputs": [
        {
          "internalType": "uint256",
          "name": "",
          "type": "uint256"
        }
      ],
      "stateMutability": "view",
      "type": "function"
    },
    {
      "inputs": [
        {
          "internalType": "string",
          "name": "_platformName",
          "type": "string"
        },
        {
          "internalType": "address",
          "name": "_platformAddress",
          "type": "address"
        }
      ],
      "name": "mintForAddress",
      "outputs": [
        {
          "internalType": "uint256",
          "name": "",
          "type": "uint256"
        }
      ],
      "stateMutability": "payable",
      "type": "function"
    },
    {
      "inputs": [],
      "name": "mintStatus",
      "outputs": [
        {
          "internalType": "enum TalentLayerPlatformID.MintStatus",
          "name": "",
          "type": "uint8"
        }
      ],
      "stateMutability": "view",
      "type": "function"
    },
    {
      "inputs": [],
      "name": "name",
      "outputs": [
        {
          "internalType": "string",
          "name": "",
          "type": "string"
        }
      ],
      "stateMutability": "view",
      "type": "function"
    },
    {
      "inputs": [
        {
          "internalType": "uint256",
          "name": "tokenId",
          "type": "uint256"
        }
      ],
      "name": "ownerOf",
      "outputs": [
        {
          "internalType": "address",
          "name": "",
          "type": "address"
        }
      ],
      "stateMutability": "view",
      "type": "function"
    },
    {
      "inputs": [
        {
          "internalType": "uint256",
          "name": "",
          "type": "uint256"
        }
      ],
      "name": "platforms",
      "outputs": [
        {
          "internalType": "uint256",
          "name": "id",
          "type": "uint256"
        },
        {
          "internalType": "string",
          "name": "name",
          "type": "string"
        },
        {
          "internalType": "string",
          "name": "dataUri",
          "type": "string"
        },
        {
          "internalType": "uint16",
          "name": "originServiceFeeRate",
          "type": "uint16"
        },
        {
          "internalType": "uint16",
          "name": "originValidatedProposalFeeRate",
          "type": "uint16"
        },
        {
          "internalType": "uint256",
          "name": "servicePostingFee",
          "type": "uint256"
        },
        {
          "internalType": "uint256",
          "name": "proposalPostingFee",
          "type": "uint256"
        },
        {
          "internalType": "contract Arbitrator",
          "name": "arbitrator",
          "type": "address"
        },
        {
          "internalType": "bytes",
          "name": "arbitratorExtraData",
          "type": "bytes"
        },
        {
          "internalType": "uint256",
          "name": "arbitrationFeeTimeout",
          "type": "uint256"
        },
        {
          "internalType": "address",
          "name": "signer",
          "type": "address"
        }
      ],
      "stateMutability": "view",
      "type": "function"
    },
    {
      "inputs": [],
      "name": "proxiableUUID",
      "outputs": [
        {
          "internalType": "bytes32",
          "name": "",
          "type": "bytes32"
        }
      ],
      "stateMutability": "view",
      "type": "function"
    },
    {
      "inputs": [
        {
          "internalType": "address",
          "name": "_arbitrator",
          "type": "address"
        }
      ],
      "name": "removeArbitrator",
      "outputs": [],
      "stateMutability": "nonpayable",
      "type": "function"
    },
    {
      "inputs": [
        {
          "internalType": "bytes32",
          "name": "role",
          "type": "bytes32"
        },
        {
          "internalType": "address",
          "name": "account",
          "type": "address"
        }
      ],
      "name": "renounceRole",
      "outputs": [],
      "stateMutability": "nonpayable",
      "type": "function"
    },
    {
      "inputs": [
        {
          "internalType": "bytes32",
          "name": "role",
          "type": "bytes32"
        },
        {
          "internalType": "address",
          "name": "account",
          "type": "address"
        }
      ],
      "name": "revokeRole",
      "outputs": [],
      "stateMutability": "nonpayable",
      "type": "function"
    },
    {
      "inputs": [
        {
          "internalType": "address",
          "name": "from",
          "type": "address"
        },
        {
          "internalType": "address",
          "name": "to",
          "type": "address"
        },
        {
          "internalType": "uint256",
          "name": "tokenId",
          "type": "uint256"
        }
      ],
      "name": "safeTransferFrom",
      "outputs": [],
      "stateMutability": "nonpayable",
      "type": "function"
    },
    {
      "inputs": [
        {
          "internalType": "address",
          "name": "from",
          "type": "address"
        },
        {
          "internalType": "address",
          "name": "to",
          "type": "address"
        },
        {
          "internalType": "uint256",
          "name": "tokenId",
          "type": "uint256"
        },
        {
          "internalType": "bytes",
          "name": "data",
          "type": "bytes"
        }
      ],
      "name": "safeTransferFrom",
      "outputs": [],
      "stateMutability": "nonpayable",
      "type": "function"
    },
    {
      "inputs": [
        {
          "internalType": "address",
          "name": "operator",
          "type": "address"
        },
        {
          "internalType": "bool",
          "name": "approved",
          "type": "bool"
        }
      ],
      "name": "setApprovalForAll",
      "outputs": [],
      "stateMutability": "nonpayable",
      "type": "function"
    },
    {
      "inputs": [
        {
          "internalType": "bytes4",
          "name": "interfaceId",
          "type": "bytes4"
        }
      ],
      "name": "supportsInterface",
      "outputs": [
        {
          "internalType": "bool",
          "name": "",
          "type": "bool"
        }
      ],
      "stateMutability": "view",
      "type": "function"
    },
    {
      "inputs": [],
      "name": "symbol",
      "outputs": [
        {
          "internalType": "string",
          "name": "",
          "type": "string"
        }
      ],
      "stateMutability": "view",
      "type": "function"
    },
    {
      "inputs": [
        {
          "internalType": "string",
          "name": "",
          "type": "string"
        }
      ],
      "name": "takenNames",
      "outputs": [
        {
          "internalType": "bool",
          "name": "",
          "type": "bool"
        }
      ],
      "stateMutability": "view",
      "type": "function"
    },
    {
      "inputs": [
        {
          "internalType": "uint256",
          "name": "tokenId",
          "type": "uint256"
        }
      ],
      "name": "tokenURI",
      "outputs": [
        {
          "internalType": "string",
          "name": "",
          "type": "string"
        }
      ],
      "stateMutability": "view",
      "type": "function"
    },
    {
      "inputs": [],
      "name": "totalSupply",
      "outputs": [
        {
          "internalType": "uint256",
          "name": "",
          "type": "uint256"
        }
      ],
      "stateMutability": "view",
      "type": "function"
    },
    {
      "inputs": [
        {
          "internalType": "address",
          "name": "from",
          "type": "address"
        },
        {
          "internalType": "address",
          "name": "to",
          "type": "address"
        },
        {
          "internalType": "uint256",
          "name": "tokenId",
          "type": "uint256"
        }
      ],
      "name": "transferFrom",
      "outputs": [],
      "stateMutability": "nonpayable",
      "type": "function"
    },
    {
      "inputs": [
        {
          "internalType": "uint256",
          "name": "_platformId",
          "type": "uint256"
        },
        {
          "internalType": "uint256",
          "name": "_arbitrationFeeTimeout",
          "type": "uint256"
        }
      ],
      "name": "updateArbitrationFeeTimeout",
      "outputs": [],
      "stateMutability": "nonpayable",
      "type": "function"
    },
    {
      "inputs": [
        {
          "internalType": "uint256",
          "name": "_platformId",
          "type": "uint256"
        },
        {
          "internalType": "contract Arbitrator",
          "name": "_arbitrator",
          "type": "address"
        },
        {
          "internalType": "bytes",
          "name": "_extraData",
          "type": "bytes"
        }
      ],
      "name": "updateArbitrator",
      "outputs": [],
      "stateMutability": "nonpayable",
      "type": "function"
    },
    {
      "inputs": [
        {
          "internalType": "uint256",
          "name": "_minArbitrationFeeTimeout",
          "type": "uint256"
        }
      ],
      "name": "updateMinArbitrationFeeTimeout",
      "outputs": [],
      "stateMutability": "nonpayable",
      "type": "function"
    },
    {
      "inputs": [
        {
          "internalType": "uint256",
          "name": "_mintFee",
          "type": "uint256"
        }
      ],
      "name": "updateMintFee",
      "outputs": [],
      "stateMutability": "nonpayable",
      "type": "function"
    },
    {
      "inputs": [
        {
          "internalType": "enum TalentLayerPlatformID.MintStatus",
          "name": "_mintStatus",
          "type": "uint8"
        }
      ],
      "name": "updateMintStatus",
      "outputs": [],
      "stateMutability": "nonpayable",
      "type": "function"
    },
    {
      "inputs": [
        {
          "internalType": "uint256",
          "name": "_platformId",
          "type": "uint256"
        },
        {
          "internalType": "uint16",
          "name": "_originServiceFeeRate",
          "type": "uint16"
        }
      ],
      "name": "updateOriginServiceFeeRate",
      "outputs": [],
      "stateMutability": "nonpayable",
      "type": "function"
    },
    {
      "inputs": [
        {
          "internalType": "uint256",
          "name": "_platformId",
          "type": "uint256"
        },
        {
          "internalType": "uint16",
          "name": "_originValidatedProposalFeeRate",
          "type": "uint16"
        }
      ],
      "name": "updateOriginValidatedProposalFeeRate",
      "outputs": [],
      "stateMutability": "nonpayable",
      "type": "function"
    },
    {
      "inputs": [
        {
          "internalType": "uint256",
          "name": "_platformId",
          "type": "uint256"
        },
        {
          "internalType": "string",
          "name": "_newCid",
          "type": "string"
        }
      ],
      "name": "updateProfileData",
      "outputs": [],
      "stateMutability": "nonpayable",
      "type": "function"
    },
    {
      "inputs": [
        {
          "internalType": "uint256",
          "name": "_platformId",
          "type": "uint256"
        },
        {
          "internalType": "uint256",
          "name": "_proposalPostingFee",
          "type": "uint256"
        }
      ],
      "name": "updateProposalPostingFee",
      "outputs": [],
      "stateMutability": "nonpayable",
      "type": "function"
    },
    {
      "inputs": [
        {
          "internalType": "uint256",
          "name": "_platformId",
          "type": "uint256"
        },
        {
          "internalType": "uint256",
          "name": "_servicePostingFee",
          "type": "uint256"
        }
      ],
      "name": "updateServicePostingFee",
      "outputs": [],
      "stateMutability": "nonpayable",
      "type": "function"
    },
    {
      "inputs": [
        {
          "internalType": "uint256",
          "name": "_platformId",
          "type": "uint256"
        },
        {
          "internalType": "address",
          "name": "_signer",
          "type": "address"
        }
      ],
      "name": "updateSigner",
      "outputs": [],
      "stateMutability": "nonpayable",
      "type": "function"
    },
    {
      "inputs": [
        {
          "internalType": "address",
          "name": "newImplementation",
          "type": "address"
        }
      ],
      "name": "upgradeTo",
      "outputs": [],
      "stateMutability": "nonpayable",
      "type": "function"
    },
    {
      "inputs": [
        {
          "internalType": "address",
          "name": "newImplementation",
          "type": "address"
        },
        {
          "internalType": "bytes",
          "name": "data",
          "type": "bytes"
        }
      ],
      "name": "upgradeToAndCall",
      "outputs": [],
      "stateMutability": "payable",
      "type": "function"
    },
    {
      "inputs": [
        {
          "internalType": "address",
          "name": "",
          "type": "address"
        }
      ],
      "name": "validArbitrators",
      "outputs": [
        {
          "internalType": "bool",
          "name": "",
          "type": "bool"
        }
      ],
      "stateMutability": "view",
      "type": "function"
    },
    {
      "inputs": [
        {
          "internalType": "address",
          "name": "",
          "type": "address"
        }
      ],
      "name": "whitelist",
      "outputs": [
        {
          "internalType": "bool",
          "name": "",
          "type": "bool"
        }
      ],
      "stateMutability": "view",
      "type": "function"
    },
    {
      "inputs": [
        {
          "internalType": "address",
          "name": "_user",
          "type": "address"
        }
      ],
      "name": "whitelistUser",
      "outputs": [],
      "stateMutability": "nonpayable",
      "type": "function"
    },
    {
      "inputs": [],
      "name": "withdraw",
      "outputs": [],
      "stateMutability": "nonpayable",
      "type": "function"
    }
  ],
  "bytecode": "0x60a0604052306080523480156200001557600080fd5b506200002062000026565b620000e8565b600054610100900460ff1615620000935760405162461bcd60e51b815260206004820152602760248201527f496e697469616c697a61626c653a20636f6e747261637420697320696e697469604482015266616c697a696e6760c81b606482015260840160405180910390fd5b60005460ff9081161015620000e6576000805460ff191660ff9081179091556040519081527f7f26b83ff96e1f2b6a682f133852f6798a09c465da95921460cefb38474024989060200160405180910390a15b565b608051614f8b6200012060003960008181610f3201528181610f72015281816113420152818161138201526114110152614f8b6000f3fe6080604052600436106103815760003560e01c80638a986363116101d1578063b88d4fde11610102578063dce22638116100a0578063f577a5001161006f578063f577a50014610ae5578063f6f3784414610b05578063f905f15414610b1c578063faa992d314610b3c57600080fd5b8063dce2263814610a28578063e985e9c514610a48578063e9a9c85014610a91578063f160068f14610ac557600080fd5b8063c87b56dd116100dc578063c87b56dd146109b5578063cb8faafa146109d5578063d547741f146109f5578063d85d3d2714610a1557600080fd5b8063b88d4fde14610962578063c37e154e14610982578063c6bf01ce1461099557600080fd5b80639b19251a1161016f578063a22cb46511610149578063a22cb465146108b5578063a383c692146108d5578063a4f524a914610911578063acd63f1b1461093157600080fd5b80639b19251a146108475780639da3f8fd14610878578063a217fddf146108a057600080fd5b806391d14854116101ab57806391d14854146107d257806395d89b41146107f2578063973ad2701461080757806399ded4441461082757600080fd5b80638a986363146107725780638e6e5397146107925780638f283a86146107b257600080fd5b80633ccfd60b116102b65780634a7ab1d5116102545780636352211e116102235780636352211e146106fd57806370a082311461071d5780638129fc1c1461073d57806384017e521461075257600080fd5b80634a7ab1d5146106885780634f1ef286146106a857806352d1902d146106bb5780635bd22c98146106d057600080fd5b80633ffefe4e116102905780633ffefe4e146105f757806342842e0e1461061757806348203b30146106375780634a4c560d1461066857600080fd5b80633ccfd60b146105a25780633d459389146105b75780633e6acfe0146105d757600080fd5b806318160ddd11610323578063248a9ca3116102fd578063248a9ca3146105125780632f2ff15d1461054257806336568abe146105625780633659cfe61461058257600080fd5b806318160ddd146104af5780631847c06b146104c457806323b872dd146104f257600080fd5b8063081812fc1161035f578063081812fc146103ff578063095ea7b31461043757806311f821921461045757806313966db51461048a57600080fd5b806301c32c851461038657806301ffc9a7146103a857806306fdde03146103dd575b600080fd5b34801561039257600080fd5b506103a66103a1366004613c32565b610b73565b005b3480156103b457600080fd5b506103c86103c3366004613c61565b610bbc565b60405190151581526020015b60405180910390f35b3480156103e957600080fd5b506103f2610bdc565b6040516103d49190613cce565b34801561040b57600080fd5b5061041f61041a366004613c32565b610c6e565b6040516001600160a01b0390911681526020016103d4565b34801561044357600080fd5b506103a6610452366004613cf6565b610c95565b34801561046357600080fd5b50610477610472366004613c32565b610daf565b60405161ffff90911681526020016103d4565b34801561049657600080fd5b506104a16101335481565b6040519081526020016103d4565b3480156104bb57600080fd5b506104a1610dd5565b3480156104d057600080fd5b506104a16104df366004613d22565b6101326020526000908152604090205481565b3480156104fe57600080fd5b506103a661050d366004613d3f565b610df2565b34801561051e57600080fd5b506104a161052d366004613c32565b60009081526097602052604090206001015490565b34801561054e57600080fd5b506103a661055d366004613d80565b610e85565b34801561056e57600080fd5b506103a661057d366004613d80565b610eaa565b34801561058e57600080fd5b506103a661059d366004613d22565b610f28565b3480156105ae57600080fd5b506103a6611007565b3480156105c357600080fd5b506104776105d2366004613c32565b6110aa565b3480156105e357600080fd5b506103a66105f2366004613e53565b6110d6565b34801561060357600080fd5b5061041f610612366004613c32565b611277565b34801561062357600080fd5b506103a6610632366004613d3f565b6112a2565b34801561064357600080fd5b506103c8610652366004613d22565b61012f6020526000908152604090205460ff1681565b34801561067457600080fd5b506103a6610683366004613d22565b6112bd565b34801561069457600080fd5b506104a16106a3366004613c32565b611316565b6103a66106b6366004613eac565b611338565b3480156106c757600080fd5b506104a1611404565b3480156106dc57600080fd5b506106f06106eb366004613c32565b6114b7565b6040516103d49190613efc565b34801561070957600080fd5b5061041f610718366004613c32565b611783565b34801561072957600080fd5b506104a1610738366004613d22565b6117e3565b34801561074957600080fd5b506103a6611869565b34801561075e57600080fd5b506103a661076d366004613c32565b611a6f565b34801561077e57600080fd5b506104a161078d366004613c32565b611ab0565b34801561079e57600080fd5b506103a66107ad366004613ff1565b611ad2565b3480156107be57600080fd5b506103a66107cd366004613d80565b611b65565b3480156107de57600080fd5b506103c86107ed366004613d80565b611bf9565b3480156107fe57600080fd5b506103f2611c24565b34801561081357600080fd5b506103a6610822366004613d22565b611c33565b34801561083357600080fd5b506103a6610842366004613ff1565b611ca3565b34801561085357600080fd5b506103c8610862366004613d22565b6101306020526000908152604090205460ff1681565b34801561088457600080fd5b50610136546108939060ff1681565b6040516103d49190614033565b3480156108ac57600080fd5b506104a1600081565b3480156108c157600080fd5b506103a66108d036600461405b565b611d37565b3480156108e157600080fd5b506103c86108f036600461408e565b805160208183018101805161012d8252928201919093012091525460ff1681565b34801561091d57600080fd5b506103a661092c3660046140c3565b611d42565b34801561093d57600080fd5b506103c861094c366004613d22565b6101316020526000908152604090205460ff1681565b34801561096e57600080fd5b506103a661097d3660046140e5565b611e2f565b6104a161099036600461419a565b611e67565b3480156109a157600080fd5b506103a66109b03660046140c3565b6120ad565b3480156109c157600080fd5b506103f26109d0366004613c32565b61212a565b3480156109e157600080fd5b506103a66109f036600461405b565b612135565b348015610a0157600080fd5b506103a6610a10366004613d80565b6121b2565b6104a1610a233660046141f1565b6121d7565b348015610a3457600080fd5b506103a6610a433660046140c3565b6123ec565b348015610a5457600080fd5b506103c8610a63366004614233565b6001600160a01b039182166000908152606a6020908152604080832093909416825291909152205460ff1690565b348015610a9d57600080fd5b506104a17f154c00819833dac601ee5ddded6fda79d9d8b506b911b3dbd54cdb95fe6c368681565b348015610ad157600080fd5b506103a6610ae0366004614261565b612469565b348015610af157600080fd5b506103a6610b00366004613c32565b612533565b348015610b1157600080fd5b506104a16101345481565b348015610b2857600080fd5b506103a6610b37366004614292565b612587565b348015610b4857600080fd5b50610b5c610b57366004613c32565b6125e6565b6040516103d49b9a999897969594939291906142b3565b6000610b7e816127f3565b6101348290556040518281527fa39eb462f98ec2e2a17ca5c7f2a0a247d212213bf0c78a6e2a3df704911ef601906020015b60405180910390a15050565b6000610bc7826127fd565b80610bd65750610bd68261284d565b92915050565b606060658054610beb9061434b565b80601f0160208091040260200160405190810160405280929190818152602001828054610c179061434b565b8015610c645780601f10610c3957610100808354040283529160200191610c64565b820191906000526020600020905b815481529060010190602001808311610c4757829003601f168201915b5050505050905090565b6000610c7982612872565b506000908152606960205260409020546001600160a01b031690565b6000610ca082611783565b9050806001600160a01b0316836001600160a01b031603610d125760405162461bcd60e51b815260206004820152602160248201527f4552433732313a20617070726f76616c20746f2063757272656e74206f776e656044820152603960f91b60648201526084015b60405180910390fd5b336001600160a01b0382161480610d2e5750610d2e8133610a63565b610da05760405162461bcd60e51b815260206004820152603d60248201527f4552433732313a20617070726f76652063616c6c6572206973206e6f7420746f60448201527f6b656e206f776e6572206f7220617070726f76656420666f7220616c6c0000006064820152608401610d09565b610daa83836128d1565b505050565b6000610dba82612533565b50600090815261012e602052604090206003015461ffff1690565b60006001610de36101355490565b610ded919061439b565b905090565b610dfb826117e3565b15610e545760405162461bcd60e51b815260206004820152602360248201527f526563697069656e7420616c726561647920686173206120506c6174666f726d60448201526208125160ea1b6064820152608401610d09565b610e5e338261293f565b610e7a5760405162461bcd60e51b8152600401610d09906143ae565b610daa8383836129be565b600082815260976020526040902060010154610ea0816127f3565b610daa8383612b2f565b6001600160a01b0381163314610f1a5760405162461bcd60e51b815260206004820152602f60248201527f416363657373436f6e74726f6c3a2063616e206f6e6c792072656e6f756e636560448201526e103937b632b9903337b91039b2b63360891b6064820152608401610d09565b610f248282612bb5565b5050565b6001600160a01b037f0000000000000000000000000000000000000000000000000000000000000000163003610f705760405162461bcd60e51b8152600401610d09906143fb565b7f00000000000000000000000000000000000000000000000000000000000000006001600160a01b0316610fb9600080516020614ecf833981519152546001600160a01b031690565b6001600160a01b031614610fdf5760405162461bcd60e51b8152600401610d0990614447565b610fe881612c1c565b6040805160008082526020820190925261100491839190612c27565b50565b6000611012816127f3565b604051600090339047908381818185875af1925050503d8060008114611054576040519150601f19603f3d011682016040523d82523d6000602084013e611059565b606091505b5050905080610f245760405162461bcd60e51b815260206004820152601860248201527f4661696c656420746f20776974686472617720457468657200000000000000006044820152606401610d09565b60006110b582612533565b50600090815261012e602052604090206003015462010000900461ffff1690565b82336110e182611783565b6001600160a01b0316146111075760405162461bcd60e51b8152600401610d0990614493565b6001600160a01b038316600090815261012f602052604090205460ff166111825760405162461bcd60e51b815260206004820152602960248201527f5468652061646472657373206d757374206265206f6620612076616c69642061604482015268393134ba3930ba37b960b91b6064820152608401610d09565b600084815261012e6020908152604080832060060180546001600160a01b0319166001600160a01b038816908117909155835261013190915290205460ff16156112025760408051602081018690520160408051601f19818403018152918152600086815261012e60205220600701906111fc9082614500565b50611220565b600084815261012e6020526040902060070161121e8382614500565b505b7f4f1d179d53629f07a3ca3cde19840349df6dadc8fc11ac201c272ec77b8673d2848461012e6000888152602001908152602001600020600701604051611269939291906145c0565b60405180910390a150505050565b600061128282612533565b50600090815261012e60205260409020600901546001600160a01b031690565b610daa83838360405180602001604052806000815250611e2f565b60006112c8816127f3565b6001600160a01b03821660008181526101306020526040808220805460ff19166001179055517f7409cb8e690bcd1487fd4fd27dad3fa92388d201ba6f953631d6d6b26299f8499190a25050565b600061132182612533565b50600090815261012e602052604090206005015490565b6001600160a01b037f00000000000000000000000000000000000000000000000000000000000000001630036113805760405162461bcd60e51b8152600401610d09906143fb565b7f00000000000000000000000000000000000000000000000000000000000000006001600160a01b03166113c9600080516020614ecf833981519152546001600160a01b031690565b6001600160a01b0316146113ef5760405162461bcd60e51b8152600401610d0990614447565b6113f882612c1c565b610f2482826001612c27565b6000306001600160a01b037f000000000000000000000000000000000000000000000000000000000000000016146114a45760405162461bcd60e51b815260206004820152603860248201527f555550535570677261646561626c653a206d757374206e6f742062652063616c60448201527f6c6564207468726f7567682064656c656761746563616c6c00000000000000006064820152608401610d09565b50600080516020614ecf83398151915290565b61152e604051806101600160405280600081526020016060815260200160608152602001600061ffff168152602001600061ffff168152602001600081526020016000815260200160006001600160a01b03168152602001606081526020016000815260200160006001600160a01b031681525090565b61153782612533565b61012e600083815260200190815260200160002060405180610160016040529081600082015481526020016001820180546115719061434b565b80601f016020809104026020016040519081016040528092919081815260200182805461159d9061434b565b80156115ea5780601f106115bf576101008083540402835291602001916115ea565b820191906000526020600020905b8154815290600101906020018083116115cd57829003601f168201915b505050505081526020016002820180546116039061434b565b80601f016020809104026020016040519081016040528092919081815260200182805461162f9061434b565b801561167c5780601f106116515761010080835404028352916020019161167c565b820191906000526020600020905b81548152906001019060200180831161165f57829003601f168201915b5050509183525050600382015461ffff808216602084015262010000909104166040820152600482015460608201526005820154608082015260068201546001600160a01b031660a082015260078201805460c0909201916116dd9061434b565b80601f01602080910402602001604051908101604052809291908181526020018280546117099061434b565b80156117565780601f1061172b57610100808354040283529160200191611756565b820191906000526020600020905b81548152906001019060200180831161173957829003601f168201915b5050509183525050600882015460208201526009909101546001600160a01b031660409091015292915050565b6000818152606760205260408120546001600160a01b031680610bd65760405162461bcd60e51b8152602060048201526018602482015277115490cdcc8c4e881a5b9d985b1a59081d1bdad95b88125160421b6044820152606401610d09565b60006001600160a01b03821661184d5760405162461bcd60e51b815260206004820152602960248201527f4552433732313a2061646472657373207a65726f206973206e6f7420612076616044820152683634b21037bbb732b960b91b6064820152608401610d09565b506001600160a01b031660009081526068602052604090205490565b600054610100900460ff16158080156118895750600054600160ff909116105b806118a35750303b1580156118a3575060005460ff166001145b6119065760405162461bcd60e51b815260206004820152602e60248201527f496e697469616c697a61626c653a20636f6e747261637420697320616c72656160448201526d191e481a5b9a5d1a585b1a5e995960921b6064820152608401610d09565b6000805460ff191660011790558015611929576000805461ff0019166101001790555b61197d6040518060400160405280601581526020017415185b195b9d13185e595c941b185d199bdc9b5251605a1b81525060405180604001604052806005815260200164151314125160da1b815250612d92565b611985612dc3565b61198d612dc3565b611998600033612dec565b6119c27f154c00819833dac601ee5ddded6fda79d9d8b506b911b3dbd54cdb95fe6c368633612dec565b6000610133819055805261012f6020527fe9104285c6851efcbc5e0e70440200efbdcab556a1c8784776780f8bb44f2931805460ff19166001179055611a0a620d2f00610b73565b611a1961013580546001019055565b610136805460ff191660011790558015611004576000805461ff0019169055604051600181527f7f26b83ff96e1f2b6a682f133852f6798a09c465da95921460cefb38474024989060200160405180910390a150565b6000611a7a816127f3565b6101338290556040518281527f38fbb1c8b109c430f0c030e7ed076cf5611a307773a4e8e365601e8f8bceaec690602001610bb0565b6000611abb82612533565b50600090815261012e602052604090206004015490565b8133611add82611783565b6001600160a01b031614611b035760405162461bcd60e51b8152600401610d0990614493565b600083815261012e6020908152604091829020600301805461ffff191661ffff86169081179091558251868152918201527f03c3aa7c7830e29d1571bfe33dc72a8b8e0297dd6fdf26ef720dee976e21125a91015b60405180910390a1505050565b8133611b7082611783565b6001600160a01b031614611b965760405162461bcd60e51b8152600401610d0990614493565b600083815261012e602090815260409182902060090180546001600160a01b0319166001600160a01b0386169081179091558251868152918201527f793c7e64f530286f5392e4266e68cf1d6d1f08a9c5494c8b916d4b86f546cb3e9101611b58565b60009182526097602090815260408084206001600160a01b0393909316845291905290205460ff1690565b606060668054610beb9061434b565b6000611c3e816127f3565b6001600160a01b038216600081815261012f60209081526040808320805460ff19908116909155610131835292819020805490931690925590519182527f715484adb5bc9cc29af577725dbf8486d0b82eca3ba79f65846e92ff38ef32b59101610bb0565b8133611cae82611783565b6001600160a01b031614611cd45760405162461bcd60e51b8152600401610d0990614493565b600083815261012e6020908152604091829020600301805463ffff000019166201000061ffff8716908102919091179091558251868152918201527fffeae29561efc186d4d5241d242f7e2b4a76f114ea5de0db37fbd19c3b1913a59101611b58565b610f24338383612df6565b8133611d4d82611783565b6001600160a01b031614611d735760405162461bcd60e51b8152600401610d0990614493565b61013454821015611de35760405162461bcd60e51b815260206004820152603460248201527f5468652074696d656f7574206d7573742062652067726561746572207468616e604482015273081d1a19481b5a5b9a5b5d5b481d1a5b595bdd5d60621b6064820152608401610d09565b600083815261012e602090815260409182902060080184905581518581529081018490527face552c85eed7b5cf46330833e6f28b1f5ce696a4532e483192b5a64e4565e599101611b58565b611e39338361293f565b611e555760405162461bcd60e51b8152600401610d09906143ae565b611e6184848484612ec4565b50505050565b600083838360016101365460ff166002811115611e8657611e8661401d565b1480611ea9575060026101365460ff166002811115611ea757611ea761401d565b145b611ef05760405162461bcd60e51b8152602060048201526018602482015277135a5b9d081cdd185d1d5cc81a5cc81b9bdd081d985b1a5960421b6044820152606401610d09565b60016101365460ff166002811115611f0a57611f0a61401d565b03611f6957336000908152610130602052604090205460ff16611f695760405162461bcd60e51b8152602060048201526017602482015276165bdd48185c99481b9bdd081dda1a5d195b1a5cdd1959604a1b6044820152606401610d09565b610133543414611f8b5760405162461bcd60e51b8152600401610d0990614662565b611f94816117e3565b15611fb15760405162461bcd60e51b8152600401610d09906146a6565b61012d8383604051611fc49291906146e8565b9081526040519081900360200190205460ff16156120195760405162461bcd60e51b81526020600482015260126024820152712730b6b29030b63932b0b23c903a30b5b2b760711b6044820152606401610d09565b6120238383612ef7565b7f154c00819833dac601ee5ddded6fda79d9d8b506b911b3dbd54cdb95fe6c368661204d816127f3565b6120608661205b6101355490565b613119565b6120a188888080601f0160208091040260200160405190810160405280939291908181526020018383808284376000920191909152508a92506132b2915050565b98975050505050505050565b81336120b882611783565b6001600160a01b0316146120de5760405162461bcd60e51b8152600401610d0990614493565b600083815261012e602090815260409182902060050184905581518581529081018490527f5cea455bfd7800a5b219f99906f1402cf18c09764b07b36821dc7285b86a77329101611b58565b6060610bd6826133a6565b6000612140816127f3565b6001600160a01b038316600081815261012f60209081526040808320805460ff1990811660011790915561013183529281902080548715159416841790558051938452908301919091527ff2c127b854bc85c8ad2528498b5f4e6c30f2973304e882c8e26278c6472e8b339101611b58565b6000828152609760205260409020600101546121cd816127f3565b610daa8383612bb5565b600082823360016101365460ff1660028111156121f6576121f661401d565b1480612219575060026101365460ff1660028111156122175761221761401d565b145b6122605760405162461bcd60e51b8152602060048201526018602482015277135a5b9d081cdd185d1d5cc81a5cc81b9bdd081d985b1a5960421b6044820152606401610d09565b60016101365460ff16600281111561227a5761227a61401d565b036122d957336000908152610130602052604090205460ff166122d95760405162461bcd60e51b8152602060048201526017602482015276165bdd48185c99481b9bdd081dda1a5d195b1a5cdd1959604a1b6044820152606401610d09565b6101335434146122fb5760405162461bcd60e51b8152600401610d0990614662565b612304816117e3565b156123215760405162461bcd60e51b8152600401610d09906146a6565b61012d83836040516123349291906146e8565b9081526040519081900360200190205460ff16156123895760405162461bcd60e51b81526020600482015260126024820152712730b6b29030b63932b0b23c903a30b5b2b760711b6044820152606401610d09565b6123938383612ef7565b6123a13361205b6101355490565b6123e286868080601f0160208091040260200160405190810160405280939291908181526020018383808284376000920191909152503392506132b2915050565b9695505050505050565b81336123f782611783565b6001600160a01b03161461241d5760405162461bcd60e51b8152600401610d0990614493565b600083815261012e602090815260409182902060040184905581518581529081018490527fccc64c8fc3688d9eb2c0bb58ff0dfef1a8528bcc06528d991da400c83835838d9101611b58565b813361247482611783565b6001600160a01b03161461249a5760405162461bcd60e51b8152600401610d0990614493565b8151602e146124d95760405162461bcd60e51b815260206004820152600b60248201526a125b9d985b1a590818da5960aa1b6044820152606401610d09565b600083815261012e602052604090206002016124f58382614500565b50827f613807bd6768f626264e7eb664a65ca99a0d930f8fd8a5b868491a592eb57f72836040516125269190613cce565b60405180910390a2505050565b60008111801561254557506101355481105b6110045760405162461bcd60e51b8152602060048201526013602482015272125b9d985b1a59081c1b185d199bdc9b481251606a1b6044820152606401610d09565b6000612592816127f3565b610136805483919060ff191660018360028111156125b2576125b261401d565b02179055507fbe5bfaa294dd4b792e98f2bcf8f597b2ead214107f9bc9e8392d6ec65e8d854f82604051610bb09190614033565b61012e60205260009081526040902080546001820180549192916126099061434b565b80601f01602080910402602001604051908101604052809291908181526020018280546126359061434b565b80156126825780601f1061265757610100808354040283529160200191612682565b820191906000526020600020905b81548152906001019060200180831161266557829003601f168201915b5050505050908060020180546126979061434b565b80601f01602080910402602001604051908101604052809291908181526020018280546126c39061434b565b80156127105780601f106126e557610100808354040283529160200191612710565b820191906000526020600020905b8154815290600101906020018083116126f357829003601f168201915b505050506003830154600484015460058501546006860154600787018054969761ffff8087169862010000909704169650939492936001600160a01b039092169261275a9061434b565b80601f01602080910402602001604051908101604052809291908181526020018280546127869061434b565b80156127d35780601f106127a8576101008083540402835291602001916127d3565b820191906000526020600020905b8154815290600101906020018083116127b657829003601f168201915b5050505060088301546009909301549192916001600160a01b031690508b565b61100481336134d5565b60006001600160e01b031982166380ac58cd60e01b148061282e57506001600160e01b03198216635b5e139f60e01b145b80610bd657506301ffc9a760e01b6001600160e01b0319831614610bd6565b60006001600160e01b03198216637965db0b60e01b1480610bd65750610bd6826127fd565b6000818152606760205260409020546001600160a01b03166110045760405162461bcd60e51b8152602060048201526018602482015277115490cdcc8c4e881a5b9d985b1a59081d1bdad95b88125160421b6044820152606401610d09565b600081815260696020526040902080546001600160a01b0319166001600160a01b038416908117909155819061290682611783565b6001600160a01b03167f8c5be1e5ebec7d5bd14f71427d1e84f3dd0314c0f7b2291e5b200ac8c7c3b92560405160405180910390a45050565b60008061294b83611783565b9050806001600160a01b0316846001600160a01b0316148061299257506001600160a01b038082166000908152606a602090815260408083209388168352929052205460ff165b806129b65750836001600160a01b03166129ab84610c6e565b6001600160a01b0316145b949350505050565b826001600160a01b03166129d182611783565b6001600160a01b0316146129f75760405162461bcd60e51b8152600401610d09906146f8565b6001600160a01b038216612a595760405162461bcd60e51b8152602060048201526024808201527f4552433732313a207472616e7366657220746f20746865207a65726f206164646044820152637265737360e01b6064820152608401610d09565b612a66838383600161352e565b826001600160a01b0316612a7982611783565b6001600160a01b031614612a9f5760405162461bcd60e51b8152600401610d09906146f8565b600081815260696020908152604080832080546001600160a01b03199081169091556001600160a01b0387811680865260688552838620805460001901905590871680865283862080546001019055868652606790945282852080549092168417909155905184937fddf252ad1be2c89b69c2b068fc378daa952ba7f163c4a11628f55a4df523b3ef91a4505050565b612b398282611bf9565b610f245760008281526097602090815260408083206001600160a01b03851684529091529020805460ff19166001179055612b713390565b6001600160a01b0316816001600160a01b0316837f2f8788117e7eff1d82e926ec794901d17c78024a50270940304540a733656f0d60405160405180910390a45050565b612bbf8282611bf9565b15610f245760008281526097602090815260408083206001600160a01b0385168085529252808320805460ff1916905551339285917ff6391f5c32d9c69d2a47ea670b442974b53935d1edc7fd64eb21e047a839171b9190a45050565b6000610f24816127f3565b7f4910fdfa16fed3260ed0e7147f7cc6da11a60208b5b9406d12a635614ffd91435460ff1615612c5a57610daa836135b6565b826001600160a01b03166352d1902d6040518163ffffffff1660e01b8152600401602060405180830381865afa925050508015612cb4575060408051601f3d908101601f19168201909252612cb19181019061473d565b60015b612d175760405162461bcd60e51b815260206004820152602e60248201527f45524331393637557067726164653a206e657720696d706c656d656e7461746960448201526d6f6e206973206e6f74205555505360901b6064820152608401610d09565b600080516020614ecf8339815191528114612d865760405162461bcd60e51b815260206004820152602960248201527f45524331393637557067726164653a20756e737570706f727465642070726f786044820152681a58589b195555525160ba1b6064820152608401610d09565b50610daa838383613652565b600054610100900460ff16612db95760405162461bcd60e51b8152600401610d0990614756565b610f248282613677565b600054610100900460ff16612dea5760405162461bcd60e51b8152600401610d0990614756565b565b610f248282612b2f565b816001600160a01b0316836001600160a01b031603612e575760405162461bcd60e51b815260206004820152601960248201527f4552433732313a20617070726f766520746f2063616c6c6572000000000000006044820152606401610d09565b6001600160a01b038381166000818152606a6020908152604080832094871680845294825291829020805460ff191686151590811790915591519182527f17307eab39ab6107e8899845ad3d59bd9653f200f220920489ca2b5937696c31910160405180910390a3505050565b612ecf8484846129be565b612edb848484846136b7565b611e615760405162461bcd60e51b8152600401610d09906147a1565b600082828080601f0160208091040260200160405190810160405280939291908181526020018383808284376000920191909152505082519293505060058210905080612f445750601f81115b15612f6257604051633eb64ab360e01b815260040160405180910390fd5b600084846000818110612f7757612f776147f3565b909101356001600160f81b031916915050602d60f81b811480612fa75750605f60f81b6001600160f81b03198216145b15612fc557604051632f2c22a760e11b815260040160405180910390fd5b60005b8281101561311157600360fc1b848281518110612fe757612fe76147f3565b01602001516001600160f81b03191610806130255750603d60f91b848281518110613014576130146147f3565b01602001516001600160f81b031916115b806130815750603960f81b848281518110613042576130426147f3565b01602001516001600160f81b0319161180156130815750606160f81b848281518110613070576130706147f3565b01602001516001600160f81b031916105b80156130b2575083818151811061309a5761309a6147f3565b6020910101516001600160f81b031916602d60f81b14155b80156130e357508381815181106130cb576130cb6147f3565b6020910101516001600160f81b031916605f60f81b14155b1561310157604051630bb7f19b60e21b815260040160405180910390fd5b61310a81614809565b9050612fc8565b505050505050565b6001600160a01b03821661316f5760405162461bcd60e51b815260206004820181905260248201527f4552433732313a206d696e7420746f20746865207a65726f20616464726573736044820152606401610d09565b6000818152606760205260409020546001600160a01b0316156131d45760405162461bcd60e51b815260206004820152601c60248201527f4552433732313a20746f6b656e20616c7265616479206d696e746564000000006044820152606401610d09565b6131e260008383600161352e565b6000818152606760205260409020546001600160a01b0316156132475760405162461bcd60e51b815260206004820152601c60248201527f4552433732313a20746f6b656e20616c7265616479206d696e746564000000006044820152606401610d09565b6001600160a01b038216600081815260686020908152604080832080546001019055848352606790915280822080546001600160a01b0319168417905551839291907fddf252ad1be2c89b69c2b068fc378daa952ba7f163c4a11628f55a4df523b3ef908290a45050565b6000806132bf6101355490565b90506132d061013580546001019055565b600081815261012e60205260409020600181016132ed8682614500565b508181556101345460088201556009810180546001600160a01b031916905560405160019061012d9061332190889061483e565b908152604080519182900360209081018320805494151560ff19909516949094179093556001600160a01b0387166000818152610132909452922084905561013354610134547f8475f1ba3b06c1e11c870cbbf9753ca9a8292ea0b203262f682de476dc268f8c926133969287928b9261485a565b60405180910390a2509392505050565b600081815261012e602090815260408083209051606093926133cc926001019101614886565b60405160208183030381529060405290506000601461012e600086815260200190815260200160002060010180546134039061434b565b9050111561342b5760405180604001604052806002815260200161034360f41b815250613447565b60405180604001604052806002815260200161036360f41b8152505b905060006134758284604051602001613461929190614908565b6040516020818303038152906040526137b8565b6040516020016134859190614c80565b60405160208183030381529060405290506134ac8382604051602001613461929190614cc5565b6040516020016134bc9190614d61565b6040516020818303038152906040529350505050919050565b6134df8282611bf9565b610f24576134ec8161390b565b6134f783602061391d565b604051602001613508929190614da6565b60408051601f198184030181529082905262461bcd60e51b8252610d0991600401613cce565b6001811115611e61576001600160a01b03841615613574576001600160a01b0384166000908152606860205260408120805483929061356e90849061439b565b90915550505b6001600160a01b03831615611e61576001600160a01b038316600090815260686020526040812080548392906135ab908490614e1b565b909155505050505050565b6001600160a01b0381163b6136235760405162461bcd60e51b815260206004820152602d60248201527f455243313936373a206e657720696d706c656d656e746174696f6e206973206e60448201526c1bdd08184818dbdb9d1c9858dd609a1b6064820152608401610d09565b600080516020614ecf83398151915280546001600160a01b0319166001600160a01b0392909216919091179055565b61365b83613ac0565b6000825111806136685750805b15610daa57611e618383613b00565b600054610100900460ff1661369e5760405162461bcd60e51b8152600401610d0990614756565b60656136aa8382614500565b506066610daa8282614500565b60006001600160a01b0384163b156137ad57604051630a85bd0160e11b81526001600160a01b0385169063150b7a02906136fb903390899088908890600401614e2e565b6020604051808303816000875af1925050508015613736575060408051601f3d908101601f1916820190925261373391810190614e61565b60015b613793573d808015613764576040519150601f19603f3d011682016040523d82523d6000602084013e613769565b606091505b50805160000361378b5760405162461bcd60e51b8152600401610d09906147a1565b805181602001fd5b6001600160e01b031916630a85bd0160e11b1490506129b6565b506001949350505050565b606081516000036137d757505060408051602081019091526000815290565b6000604051806060016040528060408152602001614eef60409139905060006003845160026138069190614e1b565b6138109190614e7e565b61381b906004614ea0565b67ffffffffffffffff81111561383357613833613db0565b6040519080825280601f01601f19166020018201604052801561385d576020820181803683370190505b509050600182016020820185865187015b808210156138c9576003820191508151603f8160121c168501518453600184019350603f81600c1c168501518453600184019350603f8160061c168501518453600184019350603f811685015184535060018301925061386e565b50506003865106600181146138e557600281146138f857613900565b603d6001830353603d6002830353613900565b603d60018303535b509195945050505050565b6060610bd66001600160a01b03831660145b6060600061392c836002614ea0565b613937906002614e1b565b67ffffffffffffffff81111561394f5761394f613db0565b6040519080825280601f01601f191660200182016040528015613979576020820181803683370190505b509050600360fc1b81600081518110613994576139946147f3565b60200101906001600160f81b031916908160001a905350600f60fb1b816001815181106139c3576139c36147f3565b60200101906001600160f81b031916908160001a90535060006139e7846002614ea0565b6139f2906001614e1b565b90505b6001811115613a6a576f181899199a1a9b1b9c1cb0b131b232b360811b85600f1660108110613a2657613a266147f3565b1a60f81b828281518110613a3c57613a3c6147f3565b60200101906001600160f81b031916908160001a90535060049490941c93613a6381614eb7565b90506139f5565b508315613ab95760405162461bcd60e51b815260206004820181905260248201527f537472696e67733a20686578206c656e67746820696e73756666696369656e746044820152606401610d09565b9392505050565b613ac9816135b6565b6040516001600160a01b038216907fbc7cd75a20ee27fd9adebab32041f755214dbc6bffa90cc0225b39da2e5c2d3b90600090a250565b60606001600160a01b0383163b613b685760405162461bcd60e51b815260206004820152602660248201527f416464726573733a2064656c65676174652063616c6c20746f206e6f6e2d636f6044820152651b9d1c9858dd60d21b6064820152608401610d09565b600080846001600160a01b031684604051613b83919061483e565b600060405180830381855af49150503d8060008114613bbe576040519150601f19603f3d011682016040523d82523d6000602084013e613bc3565b606091505b5091509150613beb8282604051806060016040528060278152602001614f2f60279139613bf4565b95945050505050565b60608315613c03575081613ab9565b613ab98383815115613c185781518083602001fd5b8060405162461bcd60e51b8152600401610d099190613cce565b600060208284031215613c4457600080fd5b5035919050565b6001600160e01b03198116811461100457600080fd5b600060208284031215613c7357600080fd5b8135613ab981613c4b565b60005b83811015613c99578181015183820152602001613c81565b50506000910152565b60008151808452613cba816020860160208601613c7e565b601f01601f19169290920160200192915050565b602081526000613ab96020830184613ca2565b6001600160a01b038116811461100457600080fd5b60008060408385031215613d0957600080fd5b8235613d1481613ce1565b946020939093013593505050565b600060208284031215613d3457600080fd5b8135613ab981613ce1565b600080600060608486031215613d5457600080fd5b8335613d5f81613ce1565b92506020840135613d6f81613ce1565b929592945050506040919091013590565b60008060408385031215613d9357600080fd5b823591506020830135613da581613ce1565b809150509250929050565b634e487b7160e01b600052604160045260246000fd5b600082601f830112613dd757600080fd5b813567ffffffffffffffff80821115613df257613df2613db0565b604051601f8301601f19908116603f01168101908282118183101715613e1a57613e1a613db0565b81604052838152866020858801011115613e3357600080fd5b836020870160208301376000602085830101528094505050505092915050565b600080600060608486031215613e6857600080fd5b833592506020840135613e7a81613ce1565b9150604084013567ffffffffffffffff811115613e9657600080fd5b613ea286828701613dc6565b9150509250925092565b60008060408385031215613ebf57600080fd5b8235613eca81613ce1565b9150602083013567ffffffffffffffff811115613ee657600080fd5b613ef285828601613dc6565b9150509250929050565b602081528151602082015260006020830151610160806040850152613f25610180850183613ca2565b91506040850151601f1980868503016060870152613f438483613ca2565b935060608701519150613f5c608087018361ffff169052565b608087015161ffff811660a0880152915060a087015160c087015260c087015160e087015260e08701519150610100613f9f818801846001600160a01b03169052565b80880151925050610120818786030181880152613fbc8584613ca2565b90880151610140888101919091528801516001600160a01b038116858901529094509150613fe79050565b5090949350505050565b6000806040838503121561400457600080fd5b82359150602083013561ffff81168114613da557600080fd5b634e487b7160e01b600052602160045260246000fd5b602081016003831061405557634e487b7160e01b600052602160045260246000fd5b91905290565b6000806040838503121561406e57600080fd5b823561407981613ce1565b915060208301358015158114613da557600080fd5b6000602082840312156140a057600080fd5b813567ffffffffffffffff8111156140b757600080fd5b6129b684828501613dc6565b600080604083850312156140d657600080fd5b50508035926020909101359150565b600080600080608085870312156140fb57600080fd5b843561410681613ce1565b9350602085013561411681613ce1565b925060408501359150606085013567ffffffffffffffff81111561413957600080fd5b61414587828801613dc6565b91505092959194509250565b60008083601f84011261416357600080fd5b50813567ffffffffffffffff81111561417b57600080fd5b60208301915083602082850101111561419357600080fd5b9250929050565b6000806000604084860312156141af57600080fd5b833567ffffffffffffffff8111156141c657600080fd5b6141d286828701614151565b90945092505060208401356141e681613ce1565b809150509250925092565b6000806020838503121561420457600080fd5b823567ffffffffffffffff81111561421b57600080fd5b61422785828601614151565b90969095509350505050565b6000806040838503121561424657600080fd5b823561425181613ce1565b91506020830135613da581613ce1565b6000806040838503121561427457600080fd5b82359150602083013567ffffffffffffffff811115613ee657600080fd5b6000602082840312156142a457600080fd5b813560038110613ab957600080fd5b60006101608d83528060208401526142cd8184018e613ca2565b905082810360408401526142e1818d613ca2565b61ffff8c811660608601528b16608085015260a084018a905260c084018990526001600160a01b0388811660e08601528482036101008601529091506143278288613ca2565b92508561012085015280851661014085015250509c9b505050505050505050505050565b600181811c9082168061435f57607f821691505b60208210810361437f57634e487b7160e01b600052602260045260246000fd5b50919050565b634e487b7160e01b600052601160045260246000fd5b81810381811115610bd657610bd6614385565b6020808252602d908201527f4552433732313a2063616c6c6572206973206e6f7420746f6b656e206f776e6560408201526c1c881bdc88185c1c1c9bdd9959609a1b606082015260800190565b6020808252602c908201527f46756e6374696f6e206d7573742062652063616c6c6564207468726f7567682060408201526b19195b1959d85d1958d85b1b60a21b606082015260800190565b6020808252602c908201527f46756e6374696f6e206d7573742062652063616c6c6564207468726f7567682060408201526b6163746976652070726f787960a01b606082015260800190565b6020808252600d908201526c2737ba103a34329037bbb732b960991b604082015260600190565b601f821115610daa57600081815260208120601f850160051c810160208610156144e15750805b601f850160051c820191505b81811015613111578281556001016144ed565b815167ffffffffffffffff81111561451a5761451a613db0565b61452e81614528845461434b565b846144ba565b602080601f831160018114614563576000841561454b5750858301515b600019600386901b1c1916600185901b178555613111565b600085815260208120601f198616915b8281101561459257888601518255948401946001909101908401614573565b50858210156145b05787850151600019600388901b60f8161c191681555b5050505050600190811b01905550565b8381526000602060018060a01b0385168184015260606040840152600084546145e88161434b565b806060870152608060018084166000811461460a576001811461462457614652565b60ff1985168984015283151560051b890183019550614652565b896000528660002060005b8581101561464a5781548b820186015290830190880161462f565b8a0184019650505b50939a9950505050505050505050565b60208082526024908201527f496e636f727265637420616d6f756e74206f662045544820666f72206d696e746040820152632066656560e01b606082015260800190565b60208082526022908201527f506c6174666f726d20616c726561647920686173206120506c6174666f726d20604082015261125160f21b606082015260800190565b8183823760009101908152919050565b60208082526025908201527f4552433732313a207472616e736665722066726f6d20696e636f72726563742060408201526437bbb732b960d91b606082015260800190565b60006020828403121561474f57600080fd5b5051919050565b6020808252602b908201527f496e697469616c697a61626c653a20636f6e7472616374206973206e6f74206960408201526a6e697469616c697a696e6760a81b606082015260800190565b60208082526032908201527f4552433732313a207472616e7366657220746f206e6f6e20455243373231526560408201527131b2b4bb32b91034b6b83632b6b2b73a32b960711b606082015260800190565b634e487b7160e01b600052603260045260246000fd5b60006001820161481b5761481b614385565b5060010190565b60008151614834818560208601613c7e565b9290920192915050565b60008251614850818460208701613c7e565b9190910192915050565b8481526080602082015260006148736080830186613ca2565b6040830194909452506060015292915050565b60008083546148948161434b565b600182811680156148ac57600181146148c1576148f0565b60ff19841687528215158302870194506148f0565b8760005260208060002060005b858110156148e75781548a8201529084019082016148ce565b50505082870194505b50506302e746c760e41b835250506004019392505050565b7f3c73766720786d6c6e733d22687474703a2f2f7777772e77332e6f72672f323081527f30302f737667222077696474683d2237323022206865696768743d223732302260208201527f3e3c726563742077696474683d223130302522206865696768743d223130302560408201527f222f3e3c73766720786d6c6e733d22687474703a2f2f7777772e77332e6f726760608201527f2f323030302f737667222077696474683d2231353022206865696768743d223160808201527f3530222076657273696f6e3d22312e32222076696577426f783d222d3230302060a08201527f2d353020313030302031303030223e3c706174682066696c6c3d22234646464660c08201527f46462220643d224d3236342e35203139302e3563302d31332e382031312e322d60e08201527f32352032352d3235483536386331332e3820302032352031312e3220323520326101008201527f357634393063302031332e382d31312e322032352d3235203235483238392e356101208201527f632d31332e3820302d32352d31312e322d32352d32357a222f3e3c70617468206101408201527f66696c6c3d22234646464646462220643d224d3236352036323463302d31332e6101608201527f382031312e322d32352032352d3235683534336331332e3820302032352031316101808201527f2e322032352032357635362e3563302031332e382d31312e322032352d3235206101a08201527f323548323930632d31332e3820302d32352d31312e322d32352d32357a222f3e6101c08201527f3c706174682066696c6c3d22234646464646462220643d224d30203139302e356101e08201527f63302d31332e382031312e322d32352032352d3235683534336331332e3820306102008201527f2032352031312e322032352032355632343763302031332e382d31312e3220326102208201527f352d3235203235483235632d31332e3820302d32352d31312e322d32352d32356102408201527f7a222f3e3c2f7376673e3c7465787420783d2233302220793d223637302220736102608201526b03a3cb6329e913337b73a1d160a51b61028082015260006129b6614c67614c61614c3861028c860188614822565b7f70782073616e732d73657269663b66696c6c3a23666666223e00000000000000815260190190565b85614822565b6c1e17ba32bc3a1f1e17b9bb339f60991b8152600d0190565b7f646174613a696d6167652f7376672b786d6c3b6261736536342c000000000000815260008251614cb881601a850160208701613c7e565b91909101601a0192915050565b683d913730b6b2911d1160b91b81528251600090614cea816009850160208801613c7e565b6b1116101134b6b0b3b2911d1160a11b6009918401918201528351614d16816015840160208801613c7e565b7f222c20226465736372697074696f6e223a202254616c656e744c617965722050601592909101918201526b6c6174666f726d204944227d60a01b6035820152604101949350505050565b7f646174613a6170706c69636174696f6e2f6a736f6e3b6261736536342c000000815260008251614d9981601d850160208701613c7e565b91909101601d0192915050565b7f416363657373436f6e74726f6c3a206163636f756e7420000000000000000000815260008351614dde816017850160208801613c7e565b7001034b99036b4b9b9b4b733903937b6329607d1b6017918401918201528351614e0f816028840160208801613c7e565b01602801949350505050565b80820180821115610bd657610bd6614385565b6001600160a01b03858116825284166020820152604081018390526080606082018190526000906123e290830184613ca2565b600060208284031215614e7357600080fd5b8151613ab981613c4b565b600082614e9b57634e487b7160e01b600052601260045260246000fd5b500490565b8082028115828204841417610bd657610bd6614385565b600081614ec657614ec6614385565b50600019019056fe360894a13ba1a3210667c828492db98dca3e2076cc3735a920a3ca505d382bbc4142434445464748494a4b4c4d4e4f505152535455565758595a6162636465666768696a6b6c6d6e6f707172737475767778797a303132333435363738392b2f416464726573733a206c6f772d6c6576656c2064656c65676174652063616c6c206661696c6564a26469706673582212201d07f83b852704b742016a8b25d31e4b873a3c6eb6422d698537e143af2c03c264736f6c63430008110033",
  "linkReferences": {},
  "deployedLinkReferences": {}
}