{
  "_format": "hh-sol-artifact-1",
  "contractName": "TalentLayerIdUtils",
  "sourceName": "contracts/TalentLayerIdUtils.sol",
  "abi": [
    {
      "inputs": [
        {
          "internalType": "address",
          "name": "_talentLayerIDAddress",
          "type": "address"
        }
      ],
      "stateMutability": "nonpayable",
      "type": "constructor"
    },
    {
      "anonymous": false,
      "inputs": [
        {
          "indexed": true,
          "internalType": "address",
          "name": "previousOwner",
          "type": "address"
        },
        {
          "indexed": true,
          "internalType": "address",
          "name": "newOwner",
          "type": "address"
        }
      ],
      "name": "OwnershipTransferred",
      "type": "event"
    },
    {
      "inputs": [
        {
          "internalType": "address",
          "name": "_to",
          "type": "address"
        },
        {
          "internalType": "address",
          "name": "_delegateAddress",
          "type": "address"
        },
        {
          "internalType": "uint256",
          "name": "_platformId",
          "type": "uint256"
        },
        {
          "internalType": "string",
          "name": "_handle",
          "type": "string"
        }
      ],
      "name": "mintDelegateAndTransfer",
      "outputs": [],
      "stateMutability": "payable",
      "type": "function"
    },
    {
      "inputs": [
        {
          "internalType": "address",
          "name": "operator",
          "type": "address"
        },
        {
          "internalType": "address",
          "name": "from",
          "type": "address"
        },
        {
          "internalType": "uint256",
          "name": "tokenId",
          "type": "uint256"
        },
        {
          "internalType": "bytes",
          "name": "data",
          "type": "bytes"
        }
      ],
      "name": "onERC721Received",
      "outputs": [
        {
          "internalType": "bytes4",
          "name": "",
          "type": "bytes4"
        }
      ],
      "stateMutability": "pure",
      "type": "function"
    },
    {
      "inputs": [],
      "name": "owner",
      "outputs": [
        {
          "internalType": "address",
          "name": "",
          "type": "address"
        }
      ],
      "stateMutability": "view",
      "type": "function"
    },
    {
      "inputs": [],
      "name": "renounceOwnership",
      "outputs": [],
      "stateMutability": "nonpayable",
      "type": "function"
    },
    {
      "inputs": [],
      "name": "talentLayerIdContract",
      "outputs": [
        {
          "internalType": "contract TalentLayerID",
          "name": "",
          "type": "address"
        }
      ],
      "stateMutability": "view",
      "type": "function"
    },
    {
      "inputs": [
        {
          "internalType": "address",
          "name": "newOwner",
          "type": "address"
        }
      ],
      "name": "transferOwnership",
      "outputs": [],
      "stateMutability": "nonpayable",
      "type": "function"
    }
  ],
  "bytecode": "0x608060405234801561001057600080fd5b5060405161063938038061063983398101604081905261002f916100ad565b6100383361005d565b600180546001600160a01b0319166001600160a01b03929092169190911790556100dd565b600080546001600160a01b038381166001600160a01b0319831681178455604051919092169283917f8be0079c531659141344cd1fd0a4f28419497f9722a3daafe3b4186f6b6457e09190a35050565b6000602082840312156100bf57600080fd5b81516001600160a01b03811681146100d657600080fd5b9392505050565b61054d806100ec6000396000f3fe6080604052600436106100555760003560e01c8063150b7a021461005a578063715018a6146100a45780638da5cb5b146100bb57806391e8bcb7146100ed578063cf2542741461010d578063f2fde38b14610120575b600080fd5b34801561006657600080fd5b50610086610075366004610437565b630a85bd0160e11b95945050505050565b6040516001600160e01b031990911681526020015b60405180910390f35b3480156100b057600080fd5b506100b9610140565b005b3480156100c757600080fd5b506000546001600160a01b03165b6040516001600160a01b03909116815260200161009b565b3480156100f957600080fd5b506001546100d5906001600160a01b031681565b6100b961011b366004610437565b610154565b34801561012c57600080fd5b506100b961013b3660046104a6565b6102aa565b610148610328565b6101526000610382565b565b600154604051630ee12ff960e31b81526000916001600160a01b0316906377097fc890349061018b908890889088906004016104c8565b60206040518083038185885af11580156101a9573d6000803e3d6000fd5b50505050506040513d601f19601f820116820180604052508101906101ce91906104fe565b600154604051631cf6239b60e01b8152600481018390526001600160a01b038881166024830152929350911690631cf6239b90604401600060405180830381600087803b15801561021e57600080fd5b505af1158015610232573d6000803e3d6000fd5b5050600154604051632142170760e11b81523060048201526001600160a01b038a811660248301526044820186905290911692506342842e0e9150606401600060405180830381600087803b15801561028a57600080fd5b505af115801561029e573d6000803e3d6000fd5b50505050505050505050565b6102b2610328565b6001600160a01b03811661031c5760405162461bcd60e51b815260206004820152602660248201527f4f776e61626c653a206e6577206f776e657220697320746865207a65726f206160448201526564647265737360d01b60648201526084015b60405180910390fd5b61032581610382565b50565b6000546001600160a01b031633146101525760405162461bcd60e51b815260206004820181905260248201527f4f776e61626c653a2063616c6c6572206973206e6f7420746865206f776e65726044820152606401610313565b600080546001600160a01b038381166001600160a01b0319831681178455604051919092169283917f8be0079c531659141344cd1fd0a4f28419497f9722a3daafe3b4186f6b6457e09190a35050565b80356001600160a01b03811681146103e957600080fd5b919050565b60008083601f84011261040057600080fd5b50813567ffffffffffffffff81111561041857600080fd5b60208301915083602082850101111561043057600080fd5b9250929050565b60008060008060006080868803121561044f57600080fd5b610458866103d2565b9450610466602087016103d2565b935060408601359250606086013567ffffffffffffffff81111561048957600080fd5b610495888289016103ee565b969995985093965092949392505050565b6000602082840312156104b857600080fd5b6104c1826103d2565b9392505050565b83815260406020820152816040820152818360608301376000818301606090810191909152601f909201601f1916010192915050565b60006020828403121561051057600080fd5b505191905056fea2646970667358221220000db6c104a9dfd8b812227410c6b115f5ea0f48a1e7543edd9b4e3e4201360364736f6c63430008110033",
  "linkReferences": {},
  "deployedLinkReferences": {}
}